{
  "_format": "hh-sol-artifact-1",
  "contractName": "DappCommerce",
  "sourceName": "contracts/DappCommerce.sol",
  "abi": [
    {
      "inputs": [],
      "stateMutability": "nonpayable",
      "type": "constructor"
    },
    {
      "anonymous": false,
      "inputs": [
        {
          "indexed": false,
          "internalType": "uint256",
          "name": "_productId",
          "type": "uint256"
        },
        {
          "indexed": false,
          "internalType": "string",
          "name": "_productName",
          "type": "string"
        },
        {
          "indexed": false,
          "internalType": "uint256",
          "name": "_productCost",
          "type": "uint256"
        },
        {
          "indexed": false,
          "internalType": "uint256",
          "name": "_quantity",
          "type": "uint256"
        }
      ],
      "name": "ProductListed",
      "type": "event"
    },
    {
      "anonymous": false,
      "inputs": [
        {
          "indexed": false,
          "internalType": "address",
          "name": "_buyerAddress",
          "type": "address"
        },
        {
          "indexed": false,
          "internalType": "uint256",
          "name": "_orderId",
          "type": "uint256"
        },
        {
          "indexed": false,
          "internalType": "uint256",
          "name": "_productId",
          "type": "uint256"
        }
      ],
      "name": "ProductPurchased",
      "type": "event"
    },
    {
      "inputs": [
        {
          "internalType": "uint256",
          "name": "_productId",
          "type": "uint256"
        }
      ],
      "name": "buyProduct",
      "outputs": [],
      "stateMutability": "payable",
      "type": "function"
    },
    {
      "inputs": [
        {
          "internalType": "uint256",
          "name": "_id",
          "type": "uint256"
        },
        {
          "internalType": "string",
          "name": "_name",
          "type": "string"
        },
        {
          "internalType": "string",
          "name": "_category",
          "type": "string"
        },
        {
          "internalType": "string",
          "name": "_image",
          "type": "string"
        },
        {
          "internalType": "uint256",
          "name": "_cost",
          "type": "uint256"
        },
        {
          "internalType": "uint256",
          "name": "_rating",
          "type": "uint256"
        },
        {
          "internalType": "uint256",
          "name": "_stock",
          "type": "uint256"
        }
      ],
      "name": "listProducts",
      "outputs": [],
      "stateMutability": "nonpayable",
      "type": "function"
    },
    {
      "inputs": [],
      "name": "name",
      "outputs": [
        {
          "internalType": "string",
          "name": "",
          "type": "string"
        }
      ],
      "stateMutability": "view",
      "type": "function"
    },
    {
      "inputs": [
        {
          "internalType": "address",
          "name": "",
          "type": "address"
        }
      ],
      "name": "orderCount",
      "outputs": [
        {
          "internalType": "uint256",
          "name": "",
          "type": "uint256"
        }
      ],
      "stateMutability": "view",
      "type": "function"
    },
    {
      "inputs": [
        {
          "internalType": "address",
          "name": "",
          "type": "address"
        },
        {
          "internalType": "uint256",
          "name": "",
          "type": "uint256"
        }
      ],
      "name": "orders",
      "outputs": [
        {
          "internalType": "uint256",
          "name": "time",
          "type": "uint256"
        },
        {
          "components": [
            {
              "internalType": "uint256",
              "name": "id",
              "type": "uint256"
            },
            {
              "internalType": "string",
              "name": "name",
              "type": "string"
            },
            {
              "internalType": "string",
              "name": "category",
              "type": "string"
            },
            {
              "internalType": "string",
              "name": "image",
              "type": "string"
            },
            {
              "internalType": "uint256",
              "name": "cost",
              "type": "uint256"
            },
            {
              "internalType": "uint256",
              "name": "rating",
              "type": "uint256"
            },
            {
              "internalType": "uint256",
              "name": "stock",
              "type": "uint256"
            }
          ],
          "internalType": "struct DappCommerce.ProductStruct",
          "name": "item",
          "type": "tuple"
        }
      ],
      "stateMutability": "view",
      "type": "function"
    },
    {
      "inputs": [],
      "name": "owner",
      "outputs": [
        {
          "internalType": "address payable",
          "name": "",
          "type": "address"
        }
      ],
      "stateMutability": "view",
      "type": "function"
    },
    {
      "inputs": [
        {
          "internalType": "uint256",
          "name": "",
          "type": "uint256"
        }
      ],
      "name": "products",
      "outputs": [
        {
          "internalType": "uint256",
          "name": "id",
          "type": "uint256"
        },
        {
          "internalType": "string",
          "name": "name",
          "type": "string"
        },
        {
          "internalType": "string",
          "name": "category",
          "type": "string"
        },
        {
          "internalType": "string",
          "name": "image",
          "type": "string"
        },
        {
          "internalType": "uint256",
          "name": "cost",
          "type": "uint256"
        },
        {
          "internalType": "uint256",
          "name": "rating",
          "type": "uint256"
        },
        {
          "internalType": "uint256",
          "name": "stock",
          "type": "uint256"
        }
      ],
      "stateMutability": "view",
      "type": "function"
    },
    {
      "inputs": [],
      "name": "withdrawFunds",
      "outputs": [],
      "stateMutability": "nonpayable",
      "type": "function"
    }
  ],
  "bytecode": "0x60a06040523480156200001157600080fd5b503373ffffffffffffffffffffffffffffffffffffffff1660808173ffffffffffffffffffffffffffffffffffffffff16815250506040518060400160405280600c81526020017f44617070436f6d6d657263650000000000000000000000000000000000000000815250600090816200008c91906200030d565b50620003f4565b600081519050919050565b7f4e487b7100000000000000000000000000000000000000000000000000000000600052604160045260246000fd5b7f4e487b7100000000000000000000000000000000000000000000000000000000600052602260045260246000fd5b600060028204905060018216806200011557607f821691505b6020821081036200012b576200012a620000cd565b5b50919050565b60008190508160005260206000209050919050565b60006020601f8301049050919050565b600082821b905092915050565b600060088302620001957fffffffffffffffffffffffffffffffffffffffffffffffffffffffffffffffff8262000156565b620001a1868362000156565b95508019841693508086168417925050509392505050565b6000819050919050565b6000819050919050565b6000620001ee620001e8620001e284620001b9565b620001c3565b620001b9565b9050919050565b6000819050919050565b6200020a83620001cd565b620002226200021982620001f5565b84845462000163565b825550505050565b600090565b620002396200022a565b62000246818484620001ff565b505050565b5b818110156200026e57620002626000826200022f565b6001810190506200024c565b5050565b601f821115620002bd57620002878162000131565b620002928462000146565b81016020851015620002a2578190505b620002ba620002b18562000146565b8301826200024b565b50505b505050565b600082821c905092915050565b6000620002e260001984600802620002c2565b1980831691505092915050565b6000620002fd8383620002cf565b9150826002028217905092915050565b620003188262000093565b67ffffffffffffffff8111156200033457620003336200009e565b5b620003408254620000fc565b6200034d82828562000272565b600060209050601f83116001811462000385576000841562000370578287015190505b6200037c8582620002ef565b865550620003ec565b601f198416620003958662000131565b60005b82811015620003bf5784890151825560018201915060208501945060208101905062000398565b86831015620003df5784890151620003db601f891682620002cf565b8355505b6001600288020188555050505b505050505050565b608051611bc362000425600039600081816102800152818161035301528181610ced0152610e7a0152611bc36000f3fe60806040526004361061007b5760003560e01c80637acc0b201161004e5780637acc0b201461013d5780638642269e146101805780638993ef291461019c5780638da5cb5b146101c55761007b565b806306fdde031461008057806324600fc3146100ab578063713d856b146100c2578063793b8c6d146100ff575b600080fd5b34801561008c57600080fd5b506100956101f0565b6040516100a29190610f2c565b60405180910390f35b3480156100b757600080fd5b506100c061027e565b005b3480156100ce57600080fd5b506100e960048036038101906100e49190610fc0565b61041e565b6040516100f69190611006565b60405180910390f35b34801561010b57600080fd5b506101266004803603810190610121919061104d565b610436565b604051610134929190611190565b60405180910390f35b34801561014957600080fd5b50610164600480360381019061015f91906111c0565b61064f565b60405161017797969594939291906111ed565b60405180910390f35b61019a600480360381019061019591906111c0565b610829565b005b3480156101a857600080fd5b506101c360048036038101906101be91906113a6565b610ceb565b005b3480156101d157600080fd5b506101da610e78565b6040516101e791906114bd565b60405180910390f35b600080546101fd90611507565b80601f016020809104026020016040519081016040528092919081815260200182805461022990611507565b80156102765780601f1061024b57610100808354040283529160200191610276565b820191906000526020600020905b81548152906001019060200180831161025957829003601f168201915b505050505081565b7f000000000000000000000000000000000000000000000000000000000000000073ffffffffffffffffffffffffffffffffffffffff163373ffffffffffffffffffffffffffffffffffffffff161461030c576040517f08c379a0000000000000000000000000000000000000000000000000000000008152600401610303906115aa565b60405180910390fd5b6000471161034f576040517f08c379a000000000000000000000000000000000000000000000000000000000815260040161034690611616565b60405180910390fd5b60007f000000000000000000000000000000000000000000000000000000000000000073ffffffffffffffffffffffffffffffffffffffff164760405161039590611667565b60006040518083038185875af1925050503d80600081146103d2576040519150601f19603f3d011682016040523d82523d6000602084013e6103d7565b606091505b505090508061041b576040517f08c379a0000000000000000000000000000000000000000000000000000000008152600401610412906116c8565b60405180910390fd5b50565b60036020528060005260406000206000915090505481565b600260205281600052604060002060205280600052604060002060009150915050806000015490806001016040518060e00160405290816000820154815260200160018201805461048690611507565b80601f01602080910402602001604051908101604052809291908181526020018280546104b290611507565b80156104ff5780601f106104d4576101008083540402835291602001916104ff565b820191906000526020600020905b8154815290600101906020018083116104e257829003601f168201915b5050505050815260200160028201805461051890611507565b80601f016020809104026020016040519081016040528092919081815260200182805461054490611507565b80156105915780601f1061056657610100808354040283529160200191610591565b820191906000526020600020905b81548152906001019060200180831161057457829003601f168201915b505050505081526020016003820180546105aa90611507565b80601f01602080910402602001604051908101604052809291908181526020018280546105d690611507565b80156106235780601f106105f857610100808354040283529160200191610623565b820191906000526020600020905b81548152906001019060200180831161060657829003601f168201915b505050505081526020016004820154815260200160058201548152602001600682015481525050905082565b600160205280600052604060002060009150905080600001549080600101805461067890611507565b80601f01602080910402602001604051908101604052809291908181526020018280546106a490611507565b80156106f15780601f106106c6576101008083540402835291602001916106f1565b820191906000526020600020905b8154815290600101906020018083116106d457829003601f168201915b50505050509080600201805461070690611507565b80601f016020809104026020016040519081016040528092919081815260200182805461073290611507565b801561077f5780601f106107545761010080835404028352916020019161077f565b820191906000526020600020905b81548152906001019060200180831161076257829003601f168201915b50505050509080600301805461079490611507565b80601f01602080910402602001604051908101604052809291908181526020018280546107c090611507565b801561080d5780601f106107e25761010080835404028352916020019161080d565b820191906000526020600020905b8154815290600101906020018083116107f057829003601f168201915b5050505050908060040154908060050154908060060154905087565b6000600160008381526020019081526020016000206040518060e00160405290816000820154815260200160018201805461086390611507565b80601f016020809104026020016040519081016040528092919081815260200182805461088f90611507565b80156108dc5780601f106108b1576101008083540402835291602001916108dc565b820191906000526020600020905b8154815290600101906020018083116108bf57829003601f168201915b505050505081526020016002820180546108f590611507565b80601f016020809104026020016040519081016040528092919081815260200182805461092190611507565b801561096e5780601f106109435761010080835404028352916020019161096e565b820191906000526020600020905b81548152906001019060200180831161095157829003601f168201915b5050505050815260200160038201805461098790611507565b80601f01602080910402602001604051908101604052809291908181526020018280546109b390611507565b8015610a005780601f106109d557610100808354040283529160200191610a00565b820191906000526020600020905b8154815290600101906020018083116109e357829003601f168201915b50505050508152602001600482015481526020016005820154815260200160068201548152505090508060800151341015610a70576040517f08c379a0000000000000000000000000000000000000000000000000000000008152600401610a679061175a565b60405180910390fd5b60008160c0015111610ab7576040517f08c379a0000000000000000000000000000000000000000000000000000000008152600401610aae906117c6565b60405180910390fd5b600060405180604001604052804281526020018381525090506001600360003373ffffffffffffffffffffffffffffffffffffffff1673ffffffffffffffffffffffffffffffffffffffff1681526020019081526020016000206000828254610b209190611815565b9250508190555080600260003373ffffffffffffffffffffffffffffffffffffffff1673ffffffffffffffffffffffffffffffffffffffff1681526020019081526020016000206000600360003373ffffffffffffffffffffffffffffffffffffffff1673ffffffffffffffffffffffffffffffffffffffff16815260200190815260200160002054815260200190815260200160002060008201518160000155602082015181600101600082015181600001556020820151816001019081610be991906119f5565b506040820151816002019081610bff91906119f5565b506060820151816003019081610c1591906119f5565b506080820151816004015560a0820151816005015560c08201518160060155505090505060018260c00151610c4a9190611ac7565b6001600084600001518152602001908152602001600020600601819055507f228a5d93a19503d5154326b1b21603e2cdd97bda22fc58196235b4490659fc0133600360003373ffffffffffffffffffffffffffffffffffffffff1673ffffffffffffffffffffffffffffffffffffffff168152602001908152602001600020548460000151604051610cde93929190611b0a565b60405180910390a1505050565b7f000000000000000000000000000000000000000000000000000000000000000073ffffffffffffffffffffffffffffffffffffffff163373ffffffffffffffffffffffffffffffffffffffff1614610d79576040517f08c379a0000000000000000000000000000000000000000000000000000000008152600401610d70906115aa565b60405180910390fd5b60006040518060e0016040528089815260200188815260200187815260200186815260200185815260200184815260200183815250905080600160008a8152602001908152602001600020600082015181600001556020820151816001019081610de391906119f5565b506040820151816002019081610df991906119f5565b506060820151816003019081610e0f91906119f5565b506080820151816004015560a0820151816005015560c082015181600601559050507f350caed69242d5b4c8b2d2142a7fde952dd71ffe0c9f16037c5b79826d7a82c488888685604051610e669493929190611b41565b60405180910390a15050505050505050565b7f000000000000000000000000000000000000000000000000000000000000000081565b600081519050919050565b600082825260208201905092915050565b60005b83811015610ed6578082015181840152602081019050610ebb565b60008484015250505050565b6000601f19601f8301169050919050565b6000610efe82610e9c565b610f088185610ea7565b9350610f18818560208601610eb8565b610f2181610ee2565b840191505092915050565b60006020820190508181036000830152610f468184610ef3565b905092915050565b6000604051905090565b600080fd5b600080fd5b600073ffffffffffffffffffffffffffffffffffffffff82169050919050565b6000610f8d82610f62565b9050919050565b610f9d81610f82565b8114610fa857600080fd5b50565b600081359050610fba81610f94565b92915050565b600060208284031215610fd657610fd5610f58565b5b6000610fe484828501610fab565b91505092915050565b6000819050919050565b61100081610fed565b82525050565b600060208201905061101b6000830184610ff7565b92915050565b61102a81610fed565b811461103557600080fd5b50565b60008135905061104781611021565b92915050565b6000806040838503121561106457611063610f58565b5b600061107285828601610fab565b925050602061108385828601611038565b9150509250929050565b61109681610fed565b82525050565b600082825260208201905092915050565b60006110b882610e9c565b6110c2818561109c565b93506110d2818560208601610eb8565b6110db81610ee2565b840191505092915050565b600060e0830160008301516110fe600086018261108d565b506020830151848203602086015261111682826110ad565b9150506040830151848203604086015261113082826110ad565b9150506060830151848203606086015261114a82826110ad565b915050608083015161115f608086018261108d565b5060a083015161117260a086018261108d565b5060c083015161118560c086018261108d565b508091505092915050565b60006040820190506111a56000830185610ff7565b81810360208301526111b781846110e6565b90509392505050565b6000602082840312156111d6576111d5610f58565b5b60006111e484828501611038565b91505092915050565b600060e082019050611202600083018a610ff7565b81810360208301526112148189610ef3565b905081810360408301526112288188610ef3565b9050818103606083015261123c8187610ef3565b905061124b6080830186610ff7565b61125860a0830185610ff7565b61126560c0830184610ff7565b98975050505050505050565b600080fd5b600080fd5b7f4e487b7100000000000000000000000000000000000000000000000000000000600052604160045260246000fd5b6112b382610ee2565b810181811067ffffffffffffffff821117156112d2576112d161127b565b5b80604052505050565b60006112e5610f4e565b90506112f182826112aa565b919050565b600067ffffffffffffffff8211156113115761131061127b565b5b61131a82610ee2565b9050602081019050919050565b82818337600083830152505050565b6000611349611344846112f6565b6112db565b90508281526020810184848401111561136557611364611276565b5b611370848285611327565b509392505050565b600082601f83011261138d5761138c611271565b5b813561139d848260208601611336565b91505092915050565b600080600080600080600060e0888a0312156113c5576113c4610f58565b5b60006113d38a828b01611038565b975050602088013567ffffffffffffffff8111156113f4576113f3610f5d565b5b6114008a828b01611378565b965050604088013567ffffffffffffffff81111561142157611420610f5d565b5b61142d8a828b01611378565b955050606088013567ffffffffffffffff81111561144e5761144d610f5d565b5b61145a8a828b01611378565b945050608061146b8a828b01611038565b93505060a061147c8a828b01611038565b92505060c061148d8a828b01611038565b91505092959891949750929550565b60006114a782610f62565b9050919050565b6114b78161149c565b82525050565b60006020820190506114d260008301846114ae565b92915050565b7f4e487b7100000000000000000000000000000000000000000000000000000000600052602260045260246000fd5b6000600282049050600182168061151f57607f821691505b602082108103611532576115316114d8565b5b50919050565b7f4f6e6c7920746865206f776e65722063616e2063616c6c20746869732066756e60008201527f6374696f6e000000000000000000000000000000000000000000000000000000602082015250565b6000611594602583610ea7565b915061159f82611538565b604082019050919050565b600060208201905081810360008301526115c381611587565b9050919050565b7f54686520636f6e74726163742062616c616e6365206973203000000000000000600082015250565b6000611600601983610ea7565b915061160b826115ca565b602082019050919050565b6000602082019050818103600083015261162f816115f3565b9050919050565b600081905092915050565b50565b6000611651600083611636565b915061165c82611641565b600082019050919050565b600061167282611644565b9150819050919050565b7f5472616e73666572696e67204661696c65640000000000000000000000000000600082015250565b60006116b2601283610ea7565b91506116bd8261167c565b602082019050919050565b600060208201905081810360008301526116e1816116a5565b9050919050565b7f4e6f7420656e6f7567682066756e647320746f2062757920612070726f64756360008201527f7400000000000000000000000000000000000000000000000000000000000000602082015250565b6000611744602183610ea7565b915061174f826116e8565b604082019050919050565b6000602082019050818103600083015261177381611737565b9050919050565b7f5468652070726f64756374206973206f7574206f662073746f636b0000000000600082015250565b60006117b0601b83610ea7565b91506117bb8261177a565b602082019050919050565b600060208201905081810360008301526117df816117a3565b9050919050565b7f4e487b7100000000000000000000000000000000000000000000000000000000600052601160045260246000fd5b600061182082610fed565b915061182b83610fed565b9250828201905080821115611843576118426117e6565b5b92915050565b60008190508160005260206000209050919050565b60006020601f8301049050919050565b600082821b905092915050565b6000600883026118ab7fffffffffffffffffffffffffffffffffffffffffffffffffffffffffffffffff8261186e565b6118b5868361186e565b95508019841693508086168417925050509392505050565b6000819050919050565b60006118f26118ed6118e884610fed565b6118cd565b610fed565b9050919050565b6000819050919050565b61190c836118d7565b611920611918826118f9565b84845461187b565b825550505050565b600090565b611935611928565b611940818484611903565b505050565b5b818110156119645761195960008261192d565b600181019050611946565b5050565b601f8211156119a95761197a81611849565b6119838461185e565b81016020851015611992578190505b6119a661199e8561185e565b830182611945565b50505b505050565b600082821c905092915050565b60006119cc600019846008026119ae565b1980831691505092915050565b60006119e583836119bb565b9150826002028217905092915050565b6119fe82610e9c565b67ffffffffffffffff811115611a1757611a1661127b565b5b611a218254611507565b611a2c828285611968565b600060209050601f831160018114611a5f5760008415611a4d578287015190505b611a5785826119d9565b865550611abf565b601f198416611a6d86611849565b60005b82811015611a9557848901518255600182019150602085019450602081019050611a70565b86831015611ab25784890151611aae601f8916826119bb565b8355505b6001600288020188555050505b505050505050565b6000611ad282610fed565b9150611add83610fed565b9250828203905081811115611af557611af46117e6565b5b92915050565b611b0481610f82565b82525050565b6000606082019050611b1f6000830186611afb565b611b2c6020830185610ff7565b611b396040830184610ff7565b949350505050565b6000608082019050611b566000830187610ff7565b8181036020830152611b688186610ef3565b9050611b776040830185610ff7565b611b846060830184610ff7565b9594505050505056fea26469706673582212206dc114d9bc505e2bdab6f34a5639c7d41257c210d5d207d50bc9bbc85b7de41e64736f6c63430008130033",
  "linkReferences": {},
  "deployedLinkReferences": {}
}